:0400000002EF02F019
:1000080000C016F001C015F0E1CF17F0E2CF18F0EC
:100018009EAA1BD0790E01012E25E16E010E2F211B
:10002800E26EAECFE6FF010E2E25006E000E2F21E8
:10003800016E00C02EF101C02FF1790E2E25E16E60
:10004800010E2F21E26EE66A1CD0A4AA1AD0010183
:10005800B60E2C25E16E010E2D21E26E74CFE6FF5F
:10006800010E2C25006E000E2D21016E00C02CF112
:1000780001C02DF1B60E2C25E16E010E2D21E26E88
:10008800E66A0F014A854C6B16C000F015C001F0F6
:0A00980017C0E1FF18C0E2FF1100DD
:1000A2000201056B066B046A056A04500325E96EBA
:1000B20005500421EA6EEE50000A61E0056B066B02
:1000C20005510125E96E06510221EA6E055104240B
:1000D200006E06510520016E00500325D96E0150B5
:1000E2000421DA6EEE50DE183FE1010E0525006EA6
:1000F200000E0621016E00500125E96E0150022119
:10010200EA6EEE50000A2DE104C0F2F105C0F3F1EF
:1001120005510424006E06510520016E00C077F1DE
:1001220001C078F100500325026E01500421036ED4
:1001320004500325006E05500421016E00C0E1FF4A
:1001420001C0E2FFFF0EE66E00C0E9FF01C0EAFF58
:1001520002C0E1FF03C0E2FFEECFE6FF010E006E38
:100162000FD0054B062BACD7010E0525006E000EF5
:100172000621016E005004260150052296D7006A1E
:02018200120069
:10018400700E0201016FAD0E036E0F0E046E016A54
:10019400026A01500225E96E02500321EA6EEE5014
:1001A400000A17E001500225E96E02500321EA6EAD
:1001B40003C0E1FF04C0E2FFEECFE6FF0B0E0C6EBE
:1001C4000F0E0D6E0D2EFED70C2EFCD7014A022AFF
:1001D400E0D703C0E1FF04C0E2FF0A0EE66E12009E
:1001E400B10E0201016F000E026F790E036F010E52
:1001F400046F55DF005210E0700E016F930E026F12
:10020400000E036FBDDF700E016FBB0E026F000E98
:10021400036FB6DF006AEBD0FD0E016F000E026FB4
:10022400790E036F010E046F3ADF005210E0700E76
:10023400016FE00E026F000E036FA2DF700E016FFC
:10024400F60E026F010E036F9BDF006AD0D0D70E4B
:10025400016F000E026F790E036F010E046F1FDF32
:10026400005209E06D0E016F330E026F000E036F32
:1002740087DF006ABCD0200E016F000E026F790E7A
:10028400036F010E046F0BDF00522CE0936AFF0E24
:10029400816E4F0E0B6EA20E0C6EA80E0D6E0D2EFF
:1002A400FED70C2EFCD70B2EFAD70000816A040E61
:1002B4000A6E130E0B6E510E0C6EA30E0D6E0D2EE8
:1002C400FED70C2EFCD70B2EFAD70A2EF8D7FF0E2A
:1002D400816E700E016F190E026F000E036F50DFF6
:1002E400006A85D03B0E016F000E026F790E036F1A
:1002F400010E046FD4DE005208E06D0E016F8A0E09
:10030400026F000E036F3CDF25D0680E016F000EF4
:10031400026F790E036F010E046FC1DE005208E014
:100324006D0E016F5C0E026F000E036F29DF12D099
:10033400430E016F010E026F790E036F010E046FFD
:10034400AEDE005207E06D0E016F350E026F010E36
:10035400036F16DF300E016F010E026FB60E036FCE
:10036400010E046F9CDE005208E0700E016F700EE7
:10037400026F010E036F04DF38D06B0E016F010EA4
:10038400026FB60E036F010E046F89DE005208E09F
:10039400700E016F640E026F010E036FF1DE25D043
:1003A400200E016F010E026FB60E036F010E046F73
:1003B40076DE005208E0700E016F190E026F010E16
:1003C400036FDEDE12D0140E016F010E026FB60E43
:1003D400036F010E046F63DE005207E0700E016FBD
:1003E400250E026F010E036FCBDE010E006E1200AC
:1003F4000900F5CFE6FF0006FBE10106F9E1120072
:1004040044EC03F0AC84B886B06A410EAF6E7284DB
:100414007086766A450E756E936AFF0E946EFF0EB3
:10042400956E816AAC98AB8EAC8A9D980F01396B3E
:100434003A6B7298718E728AA3983B6BAB889EAAB2
:1004440001D0FDD77188A4AA01D0FDD7F28EF28C19
:10045400D08E9F8A9F889E989D989E9A9D8AA58AF1
:10046400A588A498A398A49AA38A7E947E907F9446
:100474007F904C6B536B7B0E4A6F390E516F4A95CC
:100484004A950101F46BF56B800EF519006E800E30
:10049400005C02E13C0EF45D1FE2790EF425026E6D
:1004A400010EF521036EB60EF425006E010EF52142
:1004B400016E00C0E1FF01C0E2FFFF0EE66E00C066
:1004C400E9FF01C0EAFF02C0E1FF03C0E2FFEECF93
:1004D400E6FFF44BF52BD8D72E6B2F6B2C6B2D6BC3
:1004E400816A7EDE00C0B5F17EA41AD07E940F012D
:1004F4004A95800E006E800E01012F19005C02E106
:100504002E512D0802E22E6B2F6B800E006E800E92
:100514002D19005C02E12C51280802E22C6B2D6B92
:04052400E0D7FFD746
:1006880010EE19F0600E006E020E016E280EF66E66
:0E069800050EF76E000EF86EFAEC01F012007F
:0705280076616C6F72320076
:10052F004D6520726573706F6E6461206D696372C3
:03053F006F210029
:08054200696E766173616F00C0
:10054A00426C6F636F456E657267697A61646F3A70
:10055A00383A496E74656E7369646164653A313517
:01056A000090
:0C056B00486F726172696F3A6469610048
:10057700426C6F636F456E657267697A61646F3A43
:1005870031303A496E74656E7369646164653A31F6
:0205970035002D
:09059900496E76616469646F002B
:1005A2004175746F723A2048656E72697175652083
:0E05B2004D61756C657220426F726765730053
:0A05C00072656C61746F72696F0060
:1005CA00437572736F2074E9636E69636F20656D9A
:0C05DA0020656C657472F46E696361004A
:0905E600696E76616469646F00BE
:1005EF0041206672657175656E636961206465206F
:0D05FF0074726162616C686F20E93A20003F
:10060C005175616C2061207375612066726571751E
:07061C00656E6369613F0098
:050623004C45443400C9
:0706280076616C6F72340073
:05062F004C45443300BE
:0706340076616C6F72350066
:02063B000000BD
:02063D000000BB
:05063F004C45443100B0
:0E064400486F726172696F3A6E6F697465007B
:10065200426C6F636F456E657267697A61646F3A67
:1006620031303A496E74656E7369646164653A311A
:010672000087
:0706730076616C6F72330029
:05067A004C4544320074
:07067F0076616C6F7232001E
:02068600000072
:020000040030CA
:0D000100231F3CFFBF81FF0FC00FE00F4029
:00000001FF
