:04000000F4EF01F028
:1000080000C016F001C015F0E1CF17F0E2CF18F0EC
:100018009EAA1BD0C50E0001C325E16E000EC421A7
:10002800E26EAECFE6FF010EC325006E000EC421BE
:10003800016E00C0C3F001C0C4F0C50EC325E16E57
:10004800000EC421E26EE66A1CD0A4AA1AD00001F0
:10005800F70EC125E16E000EC221E26E74CFE6FFF5
:10006800010EC125006E000EC221016E00C0C1F054
:1000780001C0C2F0F70EC125E16E000EC221E26E8A
:10008800E66A0F014A854C6B16C000F015C001F0F6
:0A00980017C0E1FF18C0E2FF1100DD
:1000A200086A080E0C6E003408360450085ED8B098
:0E00B20002D00826D89000360C2EF5D712008A
:1000C0000101436B030E435D0AE243514125E16E9A
:1000D000000E4221E26E200EE66E432BF3D7435111
:1000E0004125E16E000E4221E26EE66A430743516C
:1000F0004125446F000E4221456F0A0E046E40C137
:1001000000F0CFDF08C000F0300E002644C1E1FF50
:1001100045C1E2FF00C0E6FF0A0E046E40C100F0D8
:10012000C0DF00C040F10050000A01E102D04307E7
:04013000DED7120004
:10013400700E0101376FAD0E036E0F0E046E016A6F
:10014400026A01503825E96E02503921EA6EEE50F8
:10015400000A17E001503825E96E02503921EA6E91
:1001640003C0E1FF04C0E2FFEECFE6FF0B0E0C6E0E
:100174000F0E0D6E0D2EFED70C2EFCD7014A022A4F
:10018400E0D703C0E1FF04C0E2FF0A0EE66E1200EE
:1001940001013C6B3D6B37C13EF1000E37BFFF0ED2
:1001A4003F6F800E3719006E800E000A005C0AE271
:1001B4003C4B3D2B375100083E6F3F6B000E37BF61
:1001C400FF0E3F5B3EC140F138C141F139C142F1FC
:1001D40075DF040E3A6F000E3B6F000E006E3B514C
:1001E400005C02E13A51000819E23A513825E16E07
:1001F4003B513921E26E010E3A5D006E000E3B590F
:10020400016E00503825E96E01503921EA6EEECFB7
:10021400E6FF010E3A5F000E3B5BDFD738C1E1FF1A
:1002240039C1E2FF200EE66E3C513D111AE03A6BF3
:100234003B6B3A513825E96E3B513921EA6EEE5059
:10024400200A03E13A4B3B2BF4D7010E3A5F000E30
:100254003B5B3A513825E16E3B513921E26E2D0E5C
:04026400E66E120030
:1002680001013B6B3C6B026A036A02503925E96E57
:1002780003503A21EA6EEE50000A45E03B6B3C6BB6
:100288003B513725E96E3C513821EA6E3B51022437
:10029800006E3C510320016E00503925D96E015083
:1002A8003A21DA6EEE50DE1823E1010E3B25006E8E
:1002B800000E3C21016E00503725E96E01503821AF
:1002C800EA6EEE50000A11E13B510224006E3C51E7
:1002D8000320016E00503925E16E01503A21E26E8B
:1002E800FF0EE66E010E006E0FD03B4B3C2BC8D7BD
:1002F800010E3B25006E000E3C21016E00500226C7
:0A03080001500322B2D7006A120070
:100312000900F5CFE6FF0006FBE10106F9E1120054
:100322004A0E0101376F000E386FC50E396F000E8D
:100332003A6F99DF005207E0700E376F190E386F6F
:10034200000E396FF6DE550E376F000E386FC50E90
:10035200396F000E3A6F87DF005210E0936AFF0E8A
:10036200816E280E0B6E510E0C6ED30E0D6E0D2E7D
:10037200FED70C2EFCD70B2EFAD7816A990E376F57
:10038200000E386FC50E396F000E3A6F6CDF0052E7
:1003920007E0700E376FA30E386F000E396FC9DE9B
:1003A200650E376F000E386FC50E396F000E3A6F4B
:1003B2005ADF005217E01F0E366F36C137F12C0E8E
:1003C200386F010E396FE5DE700E376F7C0E386FB5
:1003D200000E396FAEDE700E376F2C0E386F010EC5
:0603E200396FA7DE1200D6
:1003E800DDEC02F0AC84B886B06A410EAF6E728460
:1003F8007086766A450E756E936AFF0E946EFF0ED0
:10040800956E816AAC98AB8EAC8A9D980F01396B5A
:100418003A6B7298718E728AA3983B6BAB889EAACE
:1004280001D0FDD77188A4AA01D0FDD7F28EF28C35
:10043800D08E9F8A9F889E989D989E9A9D8AA58A0D
:10044800A588A498A398A49AA38A7E947E907F9462
:100458007F904C6B536B7B0E4A6F390E516F4A95E8
:100468004A9501012A6B2B6B800E2B19006E800EAA
:10047800005C02E1320E2A5D1FE2C50E2A25026EDB
:10048800000E2B21036EF70E2A25006E000E2B217D
:10049800016E00C0E1FF01C0E2FFFF0EE66E00C082
:1004A800E9FF01C0EAFF02C0E1FF03C0E2FFEECFAF
:1004B800E6FF2A4B2B2BD8D70001C36BC46BC16B4B
:1004C800C26B816A2ADF00C029F17EA41AD07E940B
:1004D8000F014A95800E006E800E0001C419005C61
:1004E80002E1C351260802E2C36BC46B800E006EA2
:1004F800800EC219005C02E1C151210802E2C16B01
:06050800C26BE0D7FFD733
:1005BA0010EE19F0AC0E006E010E016E0E0EF66E04
:0E05CA00050EF76E000EF86E89EC01F01200BF
:10050E004573746F75207669766F2073696D2C2034
:10051E006D7569746F206F6272696761646F2070A8
:10052E00656C61207072656F6375706163616F21B8
:01053E0000BC
:0B053F0065737461207669766F3F00E1
:10054A00426C6F636F456E657267697A61646F00AA
:10055A005175616C206120737561206672657175D1
:07056A00656E6369613F004B
:1005710041206672657175656E63696120646520ED
:0D05810074726162616C686F20E93A2000BD
:0A058E0072656C61746F72696F0092
:100598004175746F723A2048656E7269717565208D
:0E05A8004D61756C657220426F72676573005D
:0205B600000043
:0205B800000041
:020000040030CA
:0D000100231F3CFFBF81FF0FC00FE00F4029
:00000001FF
