:1000000040EF00F00000000016EF00F000000000DC
:0C001000000000000000000034EF00F0D1
:10001C000900F5CFE6FF0006FBE10106F9E112004D
:10002C0000C019F001C018F01C0E1A24E16E000E6D
:10003C001B20E26EAECFE6FF010E1A24006E000EFE
:10004C001B20016E1C0E0024E16E000E0120E26EDE
:0C005C00E66A19C000F018C001F01100A5
:10006800156ED8CF16F0E0CF17F01750E06E165087
:08007800D86E153A153810008E
:060080001A6A1B6AFFD79B
:020000040030CA
:0D000100231F3CFFBF81FF0FC00FE00F4029
:00000001FF
