:04000000D7EF00F046
:1000080000C016F001C015F0E1CF17F0E2CF18F0EC
:100018009EAA19D0540E2424E16E000E2520E26E0B
:10002800AECFE6FF010E2424006E000E2520016EDF
:1000380000C024F001C025F0540E2424E16E000E07
:100048002520E26EE66AA4AA1BD02C0E2624E16EB7
:10005800000E2720E26E74CFE6FF000EE66E010E5A
:100068002624006E000E2720016E00C026F001C075
:1000780027F02C0E2624E16E000E2720E26EE66A99
:1000880016C000F015C001F017C0E1FF18C0E2FF6C
:02009800110055
:10009A000001816B826B026A036A540E0224E96EC4
:1000AA00000E0320EA6EEE50000A5FE0816B826B5D
:1000BA0081517F25E96E82518021EA6E81510224A5
:1000CA00006E82510320016E540E0024D96E000E78
:1000DA000120DA6EEE50DE183DE1010E8125006E38
:1000EA00000E8221016E00507F25E96E01508021A9
:1000FA00EA6EEE50000A2BE102C028F003C029F094
:10010A0081510224006E82510320016E00C02AF040
:10011A0001C02BF0540E0024E16E000E0120E26EA5
:10012A00FF0EE66E81510224006E82510320016E99
:10013A00010E005E000E015A540E0024E16E000EFC
:10014A000120E26EFF0EE66E010E006E0FD0814BAB
:10015A00822BAED7010E8125006E000E8221016E20
:0E016A00005002260150032298D7006A1200AE
:100178001F0E00017F6F000E806F8BDF005202E0C0
:10018800FF0E816E190E7F6F000E806F82DF0052A6
:06019800D8A4816A1200E8
:10019E000900F5CFE6FF0006FBE10106F9E11200CA
:1001AE00720E196E690E1A6E670E1B6E680E1C6E3D
:1001BE00740E1D6E1E6A6C0E1F6E650E206E660E20
:1001CE00216E740E226E236A246A256A266A276AB5
:1001DE00AC84B886B06A410EAF6E72847086766A51
:1001EE00450E756E936AFF0E946EFF0E956E816AC4
:1001FE00AC98AB8EAC8A9D980F01396B3A6B7298A6
:10020E00718E728AA3983B6BAB889EAA01D0FDD7E4
:10021E007188A4AA01D0FDD7F28EF28CD08E9F8A5F
:10022E009F889E989D989E9A9D8AA58AA588A49837
:10023E00A398A49AA38A7E947E907D847E807F94D8
:10024E007F904C6B536B390E4A6F390E516F4A9536
:10025E004A95650E0C6EA50E0D6E0D2EFED70C2E4C
:10026E00FCD700017D6B7E6B800E7E19006E800EBA
:10027E00005C02E1280E7D5D0BE2540E7D25E16EE1
:10028E00000E7E21E26EFF0EE66E7D4B7E2BECD7CE
:10029E00246A256A816A69DF00C07CF0800E006ED8
:1002AE00800E2518005C02E12450230802E2246A25
:0602BE00256AF1D7FFD70D
:020000040030CA
:0D000100231F3CFFBF81FF0FC00FE00F4029
:00000001FF
