:04000000FCEF00F021
:1000080000C016F001C015F0E1CF17F0E2CF18F0EC
:100018009EAA19D0320E3024E16E000E3120E26E15
:10002800AECFE6FF010E3024006E000E3120016EC7
:1000380000C030F001C031F0320E3024E16E000E05
:100048003120E26EE66AA4AA1BD05E0E2824E16E77
:10005800000E2920E26E74CFE6FF000EE66E010E58
:100068002824006E000E2920016E00C028F001C06F
:1000780029F05E0E2824E16E000E2920E26EE66A61
:1000880016C000F015C001F017C0E1FF18C0E2FF6C
:02009800110055
:10009A0000018B6B8C6B026A036A320E0224E96ED2
:1000AA00000E0320EA6EEE50000A5FE08B6B8C6B49
:1000BA008B518925E96E8C518A21EA6E8B51022473
:1000CA00006E8C510320016E320E0024D96E000E90
:1000DA000120DA6EEE50DE183DE1010E8B25006E2E
:1000EA00000E8C21016E00508925E96E01508A218B
:1000FA00EA6EEE50000A2BE102C05CF003C05DF02C
:10010A008B510224006E8C510320016E00C05AF0FC
:10011A0001C05BF0320E0024E16E000E0120E26E97
:10012A00FF0EE66E8B510224006E8C510320016E85
:10013A00010E005E000E015A320E0024E16E000E1E
:10014A000120E26EFF0EE66E010E006E0FD08B4BA1
:10015A008C2BAED7010E8B25006E000E8C21016E02
:0E016A00005002260150032298D7006A1200AE
:10017800230E0001896F000E8A6F8BDF005202E0A8
:10018800FF0E816E2A0E896F000E8A6F82DF005281
:10019800D8A4816A190E896F000E8A6F7ADF00521F
:1001A8001EE0500EAD6E650E0C6EA50E0D6E0D2E7A
:1001B800FED70C2EFCD7610EAD6E650E0C6EA50E2B
:1001C8000D6E0D2EFED70C2EFCD7690EAD6E650E8A
:1001D8000C6EA50E0D6E0D2EFED70C2EFCD7120040
:1001E8000900F5CFE6FF0006FBE10106F9E1120080
:1001F80076EC01F0AC84B886B06A410EAF6E7284BA
:100208007086766A450E756E936AFF0E946EFF0EC1
:10021800956E816AAC98AB8EAC8A9D980F01396B4C
:100228003A6B7298718E728AA3983B6BAB889EAAC0
:1002380001D0FDD77188A4AA01D0FDD7F28EF28C27
:10024800D08E9F8A9F889E989D989E9A9D8AA58AFF
:10025800A588A498A398A49AA38A7E947E907D8466
:100268007E807F947F904C6B536B390E4A6F390EAA
:10027800516F4A954A950001876B886B800E8819E3
:10028800006E800E005C02E1280E875D0BE2320EE4
:100298008725E16E000E8821E26EFF0EE66E874B21
:1002A800882BECD7306A316A816A62DF00C086F039
:1002B800800E006E800E3118005C02E13050230879
:0A02C80002E2306A316AF1D7FFD775
:1002EC0010EE19F0190E006E010E016ED20EF66EA4
:0E02FC00020EF76E000EF86EF4EC00F0120029
:0A02D20065737461207669766F0091
:0502DC006C6566740072
:0202E10000001B
:0602E300726967687400F7
:0202E900000013
:020000040030CA
:0D000100231F3CFFBF81FF0FC00FE00F4029
:00000001FF
