:1000000029EF01F0000000000FEF01F000000000F8
:0C00100000000000000000009EEF01F066
:0E001C00ACB202D00000FCD75FC0ADFF1200F6
:0C002A0072B201D0FDD75FC073FF12005E
:100036005FC0C9FFC7B002D00000FCD7C9CF00F02F
:020046001200A6
:100048005FC06FFF6DB002D00000FCD76FCF00F02B
:02005800120094
:10005A00F250026EF29E0500FF6A0150FE6E0050D9
:08006A00FD6E02BEF28E1200D1
:1000720036C073F037C074F038C075F039C076F00E
:100082006B826BA21FD0365037103810391019E02E
:10009200000173517411751176110CE167C0E1FF13
:1000A20068C0E2FF060EE66E65C000F066C001F0B1
:1000B200D3DF08D0010E0001735F000E745B755B25
:0600C200765BDFD712009F
:0400C800C5841200D9
:1000CC000001716B726B026A036A400E0224E96EC6
:1000DC00000E0320EA6EEE50000A4FE0716B726B5B
:1000EC0071516F25E96E72517021EA6E71510224C3
:1000FC00006E72510320016E400E0024D96E000E6A
:10010C000120DA6EEE50DE182DE1010E7125006E25
:10011C00000E7221016E00506F25E96E01507021A6
:10012C00EA6EEE50000A1BE102C03EF003C03FF045
:10013C00715102243A6E725103203B6E010E7125EF
:10014C00006E000E7221016E00506F25E16E0150A1
:10015C007021E26EFF0EE66E010E006E0FD0714B39
:10016C00722BBED7010E7125006E000E7221016E2E
:0E017C000050022601500322A8D7006A12008C
:10018A0032C073F033C074F034C075F035C076F005
:10019A00C582C5A21FD0325033103410351019E071
:1001AA00000173517411751176110CE163C0E1FFFE
:1001BA0064C0E2FF060EE66E61C000F062C001F0A4
:1001CA0047DF08D0010E0001735F000E745B755B98
:0601DA00765BDFD7120086
:0401E0006B8412001A
:1001E4000900F5CFE6FF0006FBE10106F9E1120084
:1001F400290E00016F6F000E706F66DF005203E07E
:100204008170006A09D0210E6F6F000E706F5CDF81
:0A0214000052D8A48172006A1200A3
:10021E00E1CF1DF0E2CF1EF0400E1F24E16E000E66
:10022E002020E26EAECFE6FF1F4A202A400E1F248A
:10023E00E16E000E2020E26EE66A1DC0E1FF1EC0D8
:04024E00E2FF1100BA
:10025200DCEC01F0AC84B886B06A410EAF6E7284F9
:100262007086766A450E756E936AFF0E946EFF0E67
:10027200956E816AAC98AB8EAC8A9D980F01396BF2
:100282003A6B7298718E728AA3983B6BAB889EAA66
:1002920001D0FDD77188A4AA01D0FDD7F28EF28CCD
:1002A200D08E9F8A9F889E989D989E9A9D8AA58AA5
:1002B200A588A498A398A49AA38A7E947E907D840C
:1002C2007E807F947F904C6B536B390E4A6F390E50
:1002D200516F4A954A95650E0C6EA50E0D6E0D2E48
:1002E200FED70C2EFCD700016D6B6E6B800E6E1963
:1002F200006E800E005C02E11E0E6D5D0BE2400E90
:100302006D25E16E000E6E21E26EFF0EE66E6D4B04
:100312006E2BECD71F6A206A816A6BDF00C03DF04A
:10032200800E006E800E2018005C02E11F502D0826
:0A03320002E21F6A206AF1D7FFD72C
:10033C0000C01AF001C019F002C018F0E1CF1BF098
:10034C00E2CF1CF0156ED8CF16F0E0CF17F0880E68
:10035C003C5CD8A01000880E5E5CD8A010007EA477
:10036C0005D069C000F06AC001F071DE7E941750B0
:10037C00E06E1650D86E153A15381AC000F019C038
:10038C0001F018C002F01BC0E1FF1CC0E2FF10001E
:1003B80010EE1FF01B0E006E010E016E9C0EF66E05
:0E03C800030EF76E000EF86EF2EC00F012005D
:02039C0000005F
:08039E00456E766961646F0091
:0903A600456E7669616E646F001A
:0403AF00000000004A
:0403B3000000000046
:020000040030CA
:0D000100231F3CFFBF81FF0FC00FE00F4029
:00000001FF
