:1000000050EF01F00000000036EF01F000000000AA
:0C0010000000000000000000A7EF01F05D
:0E001C00ACB202D00000FCD76AC1ADFF1200EA
:0C002A0072B201D0FDD76AC173FF120052
:100036006AC1C9FFC7B002D00000FCD7C9CF00F023
:020046001200A6
:100048006AC16FFF6DB002D00000FCD76FCF00F01F
:02005800120094
:10005A00F250026EF29E0500FF6A0150FE6E0050D9
:08006A00FD6E02BEF28E1200D1
:1000720065C14FF1000E0101506F8C0E596F010ED8
:100082005A6F000E5B6F000E5C6F4F515011D8A477
:040092007E84120056
:1000960021C066F122C067F123C068F124C069F16E
:1000A6006B826BA21FD0215022102310241019E05E
:1000B600010166516711681169110CE157C1E1FF31
:1000C60058C1E2FF060EE66E55C100F056C101F0BA
:1000D600C1DF08D0010E0101665F000E675B685B39
:0600E600695BDFD7120088
:0400EC00C5841200B5
:0400F0006B8412000B
:1000F4000101616B626B4C0E6125E96E000E622199
:10010400EA6EEE50000A3EE0636B646B63515F2558
:10011400E96E64516021EA6E63516125006E645199
:100124006221016E4C0E0024D96E000E0120DA6E9D
:10013400EE50DE181CE163515F25E96E64516021C5
:10014400EA6EEE50000A10E161C14AF062C14BF060
:10015400635161254C6F645162214D6F010E656FCF
:1001640086DF010E006E0FD0634B642BCFD7010ED8
:100174006325006E000E6421016E0050612701505A
:080184006223B9D7006A1200E2
:10018C004AC001F04BC002F04CC103F04DC104F069
:10019C00010E1E6E800E0218006E800E0418005C9C
:1001AC0002E10350015C0DE24C0E0324E16E000EE3
:1001BC000420E26EFF0EE66E010E035E000E045A82
:1001CC00E9D71E6A01014C6B4D6B4A6A4B6A1200EF
:1001DC0044C066F145C067F146C068F147C069F19B
:1001EC00C582C5A21FD0445045104610471019E0D7
:1001FC00010166516711681169110CE153C1E1FFEE
:10020C0054C1E2FF060EE66E51C100F052C101F07E
:10021C001EDF08D0010E0101665F000E675B685B94
:06022C00695BDFD7120040
:100232000900F5CFE6FF0006FBE10106F9E1120035
:10024200250E01015F6F000E606F53DF005203E065
:10025200936AFF0E816E350E5F6F000E606F49DF8D
:0A0262000052D8A4816A006A12005D
:10026C00E1CF1CF0E2CF1DF04C0E1F24E16E000E0E
:10027C002020E26EAECFE6FF1F4A202A4C0E1F2430
:10028C00E16E000E2020E26EE66A1CC0E1FF1DC08C
:04029C00E2FF11006C
:1002A000E8EC01F072847086766A450E756EFF0E7A
:1002B000936EFF0E946EFF0E956E7298718E728A19
:1002C000A3980F013B6B7188A4AA01D0FDD7F28ED1
:1002D000F28CD08EA58AA588A498A398A49AA38A04
:1002E0007E947E907D847E807F947F904C6B536B58
:1002F000390E4A6F390E516F4A954A9501015D6B6F
:100300005E6B800E5E19006E800E010A005C02E1D9
:10031000000E5D5D0BE24C0E5D25E16E000E5E2170
:10032000E26EFF0EE66E5D4B5E2BEBD78ADF00C000
:100330004EF1800E010A006E800E2018005C02E172
:0E0340001F50800802E21F6A206AF0D7FFD724
:10034E0000C019F001C018F0E1CF1AF0E2CF1BF097
:10035E00156ED8CF16F0E0CF17F0880E485CD8A0F7
:10036E001000880E495CD8A010007EA405D059C19B
:10037E0000F05AC101F06ADE7E941750E06E1650FE
:10038E00D86E153A153819C000F018C001F01AC011
:08039E00E1FF1BC0E2FF1000AB
:1003D00010EE1EF02A0E006E010E016EA60EF66ED5
:0E03E000030EF76E000EF86E19EC01F012001D
:0103A6000056
:0203A700000054
:0403A9000000000050
:1003AD0043454C4C3A4163656E6465724C4544005F
:0F03BD0043454C4C3A4170616761724C454400B6
:0403CC00000000002D
:020000040030CA
:0D000100231F3CFFBF81FF0FC00FE00F4029
:00000001FF
